S019000073657269616C5F61746D656761333238702E73726563B0
S11300000C9434000C943E000C943E000C943E007E
S11300100C943E000C943E000C943E000C943E0064
S11300200C943E000C943E000C943E000C943E0054
S11300300C943E000C943E000C943E000C943E0044
S11300400C943E000C943E000C943E000C943E0034
S11300500C943E000C943E000C943E000C943E0024
S11300600C943E000C943E0011241FBECFEFD8E048
S1130070DEBFCDBF0E9453000C946A000C940000B4
S11300809093C5008093C40088E18093C1008EE002
S11300908093C2000895E0ECF0E0908195FFFDCFDD
S11300A08093C600089588E090E00E94400081E6B5
S11300B00E944B008DE00E944B008AE00E944B009E
S11300C02FEF84E39CE0215080409040E1F700C092
S10B00D00000EDCFF894FFCF0E
S9030000FC
