:100000000C942A000C943F000C943F000C943F0089
:100010000C943F000C943F000C943F000C943F0064
:100020000C943F000C943F000C943F000C943F0054
:100030000C943F000C943F000C943F000C943F0044
:100040000C943F000C943F000C943F000C943F0034
:100050000C943F0011241FBECFE5D8E0DEBFCDBF1A
:1000600010E0A0E6B0E0E2E7F1E002C005900D92FA
:10007000A239B107D9F70E9459000C94B7000C942B
:10008000000080E280B986B7846086BF089506B616
:1000900007FEFDCF089584EA86BF0E9447000895B9
:1000A00084E986BF089583B984E886BF0E9447002B
:1000B0000895CF93DF93CDB7DEB7E1970FB6F894ED
:1000C000DEBF0FBECDBF0E94AA000E9441000E9469
:1000D0004B0082E10E94530081E3E0E6F0E0DE01A4
:1000E000119601900D928A95E1F781E30E94B30089
:1000F0008AE00E94B3008DE00E94B30019811123B1
:10010000B9F000E0812F0E945300812F0E94B300BC
:100110000F5F8FE097E20197F1F700C00000E1E088
:10012000F0E0EC0FFD1FE00FF11D10811111EACF7F
:100130008AE00E94B3008DE00E94B3000E9450004C
:100140009FEF24E38CE0915020408040E1F700C015
:100150000000BDCF10BC88E089B9599888E18AB900
:1001600086E880BD08955D9BFECF8CB90895F89414
:02017000FFCFBF
:1001720061686D616420686F772061726520796FB4
:100182007520746F646179206C65747327732073B2
:10019200656520696620697420776F726B732E2EF5
:0201A20000005B
:00000001FF
