:100000000C942A000C9434000C9434000C943400AA
:100010000C9434000C9434000C9434000C94340090
:100020000C9434000C9434000C9434000C94340080
:100030000C9434000C9434000C9434000C94340070
:100040000C9434000C9434000C9434000C94340060
:100050000C94340011241FBECFE5D8E0DEBFCDBF25
:100060000E9436000C945D000C9400000E944C002D
:100070005F9B05C00E9459000E945500F9CF81E6A0
:100080000E9455002FEF84E39CE021508040904077
:10009000E1F700C00000ECCF10BC88E089B95998A6
:1000A00088E18AB986E880BD08955D9BFECF8CB952
:0E00B00008955F9BFECF8CB10895F894FFCFAA
:00000001FF
